{
    "contractName": "Transactions",
    "abi": [
        {
            "inputs": [
                {
                    "internalType": "address",
                    "name": "token",
                    "type": "address"
                }
            ],
            "stateMutability": "nonpayable",
            "type": "constructor"
        },
        {
            "anonymous": false,
            "inputs": [
                {
                    "indexed": false,
                    "internalType": "address",
                    "name": "from",
                    "type": "address"
                },
                {
                    "indexed": false,
                    "internalType": "address",
                    "name": "to",
                    "type": "address"
                },
                {
                    "indexed": false,
                    "internalType": "uint256",
                    "name": "amount",
                    "type": "uint256"
                },
                {
                    "indexed": false,
                    "internalType": "uint256",
                    "name": "date",
                    "type": "uint256"
                },
                {
                    "indexed": false,
                    "internalType": "string",
                    "name": "_type",
                    "type": "string"
                }
            ],
            "name": "FundsTransfer",
            "type": "event"
        },
        {
            "anonymous": false,
            "inputs": [
                {
                    "indexed": false,
                    "internalType": "address",
                    "name": "merchant",
                    "type": "address"
                },
                {
                    "indexed": false,
                    "internalType": "uint256",
                    "name": "instrumentId",
                    "type": "uint256"
                },
                {
                    "indexed": false,
                    "internalType": "uint256",
                    "name": "amount",
                    "type": "uint256"
                },
                {
                    "indexed": false,
                    "internalType": "uint256",
                    "name": "date",
                    "type": "uint256"
                },
                {
                    "indexed": false,
                    "internalType": "string",
                    "name": "name",
                    "type": "string"
                }
            ],
            "name": "InstrumentsCreated",
            "type": "event"
        },
        {
            "anonymous": false,
            "inputs": [
                {
                    "indexed": false,
                    "internalType": "address",
                    "name": "from",
                    "type": "address"
                },
                {
                    "indexed": false,
                    "internalType": "address",
                    "name": "to",
                    "type": "address"
                },
                {
                    "indexed": false,
                    "internalType": "uint256",
                    "name": "amount",
                    "type": "uint256"
                },
                {
                    "indexed": false,
                    "internalType": "uint256",
                    "name": "instrumentId",
                    "type": "uint256"
                },
                {
                    "indexed": false,
                    "internalType": "uint256",
                    "name": "date",
                    "type": "uint256"
                }
            ],
            "name": "PaymentSent",
            "type": "event"
        },
        {
            "anonymous": false,
            "inputs": [
                {
                    "indexed": false,
                    "internalType": "address",
                    "name": "buyer",
                    "type": "address"
                },
                {
                    "indexed": false,
                    "internalType": "address",
                    "name": "seller",
                    "type": "address"
                },
                {
                    "indexed": false,
                    "internalType": "uint256",
                    "name": "amount",
                    "type": "uint256"
                },
                {
                    "indexed": false,
                    "internalType": "uint256",
                    "name": "instrumentsId",
                    "type": "uint256"
                },
                {
                    "indexed": false,
                    "internalType": "uint256",
                    "name": "date",
                    "type": "uint256"
                }
            ],
            "name": "PurchaseCreated",
            "type": "event"
        },
        {
            "inputs": [],
            "name": "instrumentId",
            "outputs": [
                {
                    "internalType": "uint256",
                    "name": "",
                    "type": "uint256"
                }
            ],
            "stateMutability": "view",
            "type": "function",
            "constant": true
        },
        {
            "inputs": [
                {
                    "internalType": "uint256",
                    "name": "",
                    "type": "uint256"
                }
            ],
            "name": "instruments",
            "outputs": [
                {
                    "internalType": "address",
                    "name": "merchant",
                    "type": "address"
                },
                {
                    "internalType": "address",
                    "name": "token",
                    "type": "address"
                },
                {
                    "internalType": "uint256",
                    "name": "amount",
                    "type": "uint256"
                },
                {
                    "internalType": "string",
                    "name": "name",
                    "type": "string"
                }
            ],
            "stateMutability": "view",
            "type": "function",
            "constant": true
        },
        {
            "inputs": [
                {
                    "internalType": "address",
                    "name": "",
                    "type": "address"
                },
                {
                    "internalType": "uint256",
                    "name": "",
                    "type": "uint256"
                }
            ],
            "name": "purchases",
            "outputs": [
                {
                    "internalType": "address",
                    "name": "buyer",
                    "type": "address"
                },
                {
                    "internalType": "uint256",
                    "name": "date",
                    "type": "uint256"
                }
            ],
            "stateMutability": "view",
            "type": "function",
            "constant": true
        },
        {
            "inputs": [],
            "name": "tokenAddress",
            "outputs": [
                {
                    "internalType": "address",
                    "name": "",
                    "type": "address"
                }
            ],
            "stateMutability": "view",
            "type": "function",
            "constant": true
        },
        {
            "inputs": [
                {
                    "internalType": "address",
                    "name": "token",
                    "type": "address"
                },
                {
                    "internalType": "uint256",
                    "name": "amount",
                    "type": "uint256"
                },
                {
                    "internalType": "string",
                    "name": "name",
                    "type": "string"
                }
            ],
            "name": "createInstrument",
            "outputs": [],
            "stateMutability": "nonpayable",
            "type": "function"
        },
        {
            "inputs": [
                {
                    "internalType": "uint256",
                    "name": "instId",
                    "type": "uint256"
                }
            ],
            "name": "purchase",
            "outputs": [],
            "stateMutability": "payable",
            "type": "function",
            "payable": true
        },
        {
            "inputs": [
                {
                    "internalType": "address payable",
                    "name": "receiver",
                    "type": "address"
                },
                {
                    "internalType": "uint256",
                    "name": "amount",
                    "type": "uint256"
                }
            ],
            "name": "sendFunds",
            "outputs": [],
            "stateMutability": "payable",
            "type": "function",
            "payable": true
        }
    ],
    "bytecode": "0x60806040523480156200001157600080fd5b506040516200165d3803806200165d833981810160405281019062000037919062000096565b80600160006101000a81548173ffffffffffffffffffffffffffffffffffffffff021916908373ffffffffffffffffffffffffffffffffffffffff160217905550506200011b565b600081519050620000908162000101565b92915050565b600060208284031215620000af57620000ae620000fc565b5b6000620000bf848285016200007f565b91505092915050565b6000620000d582620000dc565b9050919050565b600073ffffffffffffffffffffffffffffffffffffffff82169050919050565b600080fd5b6200010c81620000c8565b81146200011857600080fd5b50565b611532806200012b6000396000f3fe6080604052600436106100705760003560e01c806352d3f8491161004e57806352d3f849146101095780636f64234e146101475780639d76ea5814610163578063efef39a11461018e57610070565b806316bd8b74146100755780631c3ee5d1146100a057806322bbad0b146100c9575b600080fd5b34801561008157600080fd5b5061008a6101aa565b60405161009791906110c7565b60405180910390f35b3480156100ac57600080fd5b506100c760048036038101906100c29190610c23565b6101b0565b005b3480156100d557600080fd5b506100f060048036038101906100eb9190610cbf565b610424565b6040516101009493929190610f05565b60405180910390f35b34801561011557600080fd5b50610130600480360381019061012b9190610be3565b61051c565b60405161013e929190610fa4565b60405180910390f35b610161600480360381019061015c9190610ba3565b61056d565b005b34801561016f57600080fd5b506101786106d6565b6040516101859190610e24565b60405180910390f35b6101a860048036038101906101a39190610cbf565b6106fc565b005b60005481565b600073ffffffffffffffffffffffffffffffffffffffff168373ffffffffffffffffffffffffffffffffffffffff161415610220576040517f08c379a000000000000000000000000000000000000000000000000000000000815260040161021790611067565b60405180910390fd5b60008211610263576040517f08c379a000000000000000000000000000000000000000000000000000000000815260040161025a90611047565b60405180910390fd5b60008190506000815114156102ad576040517f08c379a00000000000000000000000000000000000000000000000000000000081526004016102a4906110a7565b60405180910390fd5b60405180608001604052803373ffffffffffffffffffffffffffffffffffffffff1681526020018573ffffffffffffffffffffffffffffffffffffffff16815260200184815260200183815250600260008054815260200190815260200160002060008201518160000160006101000a81548173ffffffffffffffffffffffffffffffffffffffff021916908373ffffffffffffffffffffffffffffffffffffffff16021790555060208201518160010160006101000a81548173ffffffffffffffffffffffffffffffffffffffff021916908373ffffffffffffffffffffffffffffffffffffffff1602179055506040820151816002015560608201518160030190805190602001906103c2929190610a3c565b509050506000808154809291906103d890611289565b91905055507fa022146f0a13a95b10be8c3a7be10cb374d4a901693a2ec9a11cc4f607c4b56633600054854286604051610416959493929190610fcd565b60405180910390a150505050565b60026020528060005260406000206000915090508060000160009054906101000a900473ffffffffffffffffffffffffffffffffffffffff16908060010160009054906101000a900473ffffffffffffffffffffffffffffffffffffffff169080600201549080600301805461049990611226565b80601f01602080910402602001604051908101604052809291908181526020018280546104c590611226565b80156105125780601f106104e757610100808354040283529160200191610512565b820191906000526020600020905b8154815290600101906020018083116104f557829003601f168201915b5050505050905084565b6003602052816000526040600020602052806000526040600020600091509150508060000160009054906101000a900473ffffffffffffffffffffffffffffffffffffffff16908060010154905082565b6000600160009054906101000a900473ffffffffffffffffffffffffffffffffffffffff169050600073ffffffffffffffffffffffffffffffffffffffff168373ffffffffffffffffffffffffffffffffffffffff161415610604576040517f08c379a00000000000000000000000000000000000000000000000000000000081526004016105fb90611027565b60405180910390fd5b8073ffffffffffffffffffffffffffffffffffffffff166323b872dd3385856040518463ffffffff1660e01b815260040161064193929190610e3f565b602060405180830381600087803b15801561065b57600080fd5b505af115801561066f573d6000803e3d6000fd5b505050506040513d601f19601f820116820180604052508101906106939190610c92565b507fd79bd3ef9608b39f331c664d82aa83cca2a09af2a59be7acf92d34c661656a74338484426040516106c99493929190610e76565b60405180910390a1505050565b600160009054906101000a900473ffffffffffffffffffffffffffffffffffffffff1681565b60006002600083815260200190815260200160002060010160009054906101000a900473ffffffffffffffffffffffffffffffffffffffff1690506000600260008481526020019081526020016000209050600073ffffffffffffffffffffffffffffffffffffffff168160000160009054906101000a900473ffffffffffffffffffffffffffffffffffffffff1673ffffffffffffffffffffffffffffffffffffffff1614156107e2576040517f08c379a00000000000000000000000000000000000000000000000000000000081526004016107d990611087565b60405180910390fd5b8173ffffffffffffffffffffffffffffffffffffffff166323b872dd338360000160009054906101000a900473ffffffffffffffffffffffffffffffffffffffff1684600201546040518463ffffffff1660e01b815260040161084793929190610ece565b602060405180830381600087803b15801561086157600080fd5b505af1158015610875573d6000803e3d6000fd5b505050506040513d601f19601f820116820180604052508101906108999190610c92565b507f577462848cc2ec95e5ef95bf0b154b97340221cd1002ea0511a3877a7f20fb8c338260000160009054906101000a900473ffffffffffffffffffffffffffffffffffffffff16836002015486426040516108f9959493929190610f51565b60405180910390a160405180604001604052803373ffffffffffffffffffffffffffffffffffffffff16815260200142815250600360003373ffffffffffffffffffffffffffffffffffffffff1673ffffffffffffffffffffffffffffffffffffffff168152602001908152602001600020600085815260200190815260200160002060008201518160000160006101000a81548173ffffffffffffffffffffffffffffffffffffffff021916908373ffffffffffffffffffffffffffffffffffffffff160217905550602082015181600101559050507fbee6759ca6249c75ad91484ea677a36a7286fe46f31ccd31d0366f9a1a26bc26338260000160009054906101000a900473ffffffffffffffffffffffffffffffffffffffff1683600201548642604051610a2f959493929190610f51565b60405180910390a1505050565b828054610a4890611226565b90600052602060002090601f016020900481019282610a6a5760008555610ab1565b82601f10610a8357805160ff1916838001178555610ab1565b82800160010185558215610ab1579182015b82811115610ab0578251825591602001919060010190610a95565b5b509050610abe9190610ac2565b5090565b5b80821115610adb576000816000905550600101610ac3565b5090565b6000610af2610aed84611107565b6110e2565b905082815260208101848484011115610b0e57610b0d611364565b5b610b198482856111e4565b509392505050565b600081359050610b30816114a0565b92915050565b600081359050610b45816114b7565b92915050565b600081519050610b5a816114ce565b92915050565b600082601f830112610b7557610b7461135f565b5b8135610b85848260208601610adf565b91505092915050565b600081359050610b9d816114e5565b92915050565b60008060408385031215610bba57610bb961136e565b5b6000610bc885828601610b36565b9250506020610bd985828601610b8e565b9150509250929050565b60008060408385031215610bfa57610bf961136e565b5b6000610c0885828601610b21565b9250506020610c1985828601610b8e565b9150509250929050565b600080600060608486031215610c3c57610c3b61136e565b5b6000610c4a86828701610b21565b9350506020610c5b86828701610b8e565b925050604084013567ffffffffffffffff811115610c7c57610c7b611369565b5b610c8886828701610b60565b9150509250925092565b600060208284031215610ca857610ca761136e565b5b6000610cb684828501610b4b565b91505092915050565b600060208284031215610cd557610cd461136e565b5b6000610ce384828501610b8e565b91505092915050565b610cf5816111ae565b82525050565b610d0481611154565b82525050565b6000610d1582611138565b610d1f8185611143565b9350610d2f8185602086016111f3565b610d3881611373565b840191505092915050565b6000610d50602583611143565b9150610d5b82611384565b604082019050919050565b6000610d73601183611143565b9150610d7e826113d3565b602082019050919050565b6000610d96601683611143565b9150610da1826113fc565b602082019050919050565b6000610db9601e83611143565b9150610dc482611425565b602082019050919050565b6000610ddc601e83611143565b9150610de78261144e565b602082019050919050565b6000610dff601083611143565b9150610e0a82611477565b602082019050919050565b610e1e816111a4565b82525050565b6000602082019050610e396000830184610cfb565b92915050565b6000606082019050610e546000830186610cfb565b610e616020830185610cec565b610e6e6040830184610e15565b949350505050565b600060a082019050610e8b6000830187610cfb565b610e986020830186610cec565b610ea56040830185610e15565b610eb26060830184610e15565b8181036080830152610ec381610d66565b905095945050505050565b6000606082019050610ee36000830186610cfb565b610ef06020830185610cfb565b610efd6040830184610e15565b949350505050565b6000608082019050610f1a6000830187610cfb565b610f276020830186610cfb565b610f346040830185610e15565b8181036060830152610f468184610d0a565b905095945050505050565b600060a082019050610f666000830188610cfb565b610f736020830187610cfb565b610f806040830186610e15565b610f8d6060830185610e15565b610f9a6080830184610e15565b9695505050505050565b6000604082019050610fb96000830185610cfb565b610fc66020830184610e15565b9392505050565b600060a082019050610fe26000830188610cfb565b610fef6020830187610e15565b610ffc6040830186610e15565b6110096060830185610e15565b818103608083015261101b8184610d0a565b90509695505050505050565b6000602082019050818103600083015261104081610d43565b9050919050565b6000602082019050818103600083015261106081610d89565b9050919050565b6000602082019050818103600083015261108081610dac565b9050919050565b600060208201905081810360008301526110a081610dcf565b9050919050565b600060208201905081810360008301526110c081610df2565b9050919050565b60006020820190506110dc6000830184610e15565b92915050565b60006110ec6110fd565b90506110f88282611258565b919050565b6000604051905090565b600067ffffffffffffffff82111561112257611121611330565b5b61112b82611373565b9050602081019050919050565b600081519050919050565b600082825260208201905092915050565b600061115f82611184565b9050919050565b600061117182611184565b9050919050565b60008115159050919050565b600073ffffffffffffffffffffffffffffffffffffffff82169050919050565b6000819050919050565b60006111b9826111c0565b9050919050565b60006111cb826111d2565b9050919050565b60006111dd82611184565b9050919050565b82818337600083830152505050565b60005b838110156112115780820151818401526020810190506111f6565b83811115611220576000848401525b50505050565b6000600282049050600182168061123e57607f821691505b6020821081141561125257611251611301565b5b50919050565b61126182611373565b810181811067ffffffffffffffff821117156112805761127f611330565b5b80604052505050565b6000611294826111a4565b91507fffffffffffffffffffffffffffffffffffffffffffffffffffffffffffffffff8214156112c7576112c66112d2565b5b600182019050919050565b7f4e487b7100000000000000000000000000000000000000000000000000000000600052601160045260246000fd5b7f4e487b7100000000000000000000000000000000000000000000000000000000600052602260045260246000fd5b7f4e487b7100000000000000000000000000000000000000000000000000000000600052604160045260246000fd5b600080fd5b600080fd5b600080fd5b600080fd5b6000601f19601f8301169050919050565b7f7468697320726563656976657273206164647265737320646f6573206e6f742060008201527f6578697374000000000000000000000000000000000000000000000000000000602082015250565b7f6c656e64696e672f626f72726f77696e67000000000000000000000000000000600082015250565b7f616d6f756e74206e6565647320746f206265203e203000000000000000000000600082015250565b7f616464726573732063616e6e6f74206265206e756c6c20616464726573730000600082015250565b7f7468697320696e737472756d656e7420646f6573206e6f742065786973740000600082015250565b7f4e616d6520697320726571756972656400000000000000000000000000000000600082015250565b6114a981611154565b81146114b457600080fd5b50565b6114c081611166565b81146114cb57600080fd5b50565b6114d781611178565b81146114e257600080fd5b50565b6114ee816111a4565b81146114f957600080fd5b5056fea26469706673582212209aa951ac3f9821579b2e0ea87f51fc177c808a1dd2ffe8504f18b5f29f9a119364736f6c63430008060033",
    "immutableReferences": {},
    "source": "//SPDX-License-Identifer: MIT\npragma solidity ^0.8.6;\n\nimport '@openzeppelin/contracts/token/ERC20/IERC20.sol';\n\ncontract Transactions {\n\n  uint public instrumentId;\n  address public tokenAddress;\n\n  constructor(address token){\n     tokenAddress = token;\n  }\n\n  struct Instruments {\n    address merchant;\n    address token;\n    uint amount;\n    string name;\n    \n  }\n  struct Purchases {\n    address buyer;\n    uint date;\n  }\n  mapping(uint => Instruments) public instruments;\n  mapping(address => mapping(uint => Purchases)) public purchases;\n  \n\n  event InstrumentsCreated(\n    address merchant,\n    uint instrumentId,\n    uint amount,\n    uint date,\n    string name\n  );\n  event PurchaseCreated(\n    address buyer,\n    address seller,\n    uint amount,\n    uint instrumentsId,\n    uint date\n  );\n  event PaymentSent(\n    address from,\n    address to,\n    uint amount,\n    uint instrumentId,\n    uint date\n  );\n\n  event FundsTransfer(\n      address from,\n      address to,\n      uint256 amount,\n      uint256 date,\n      string _type\n  );\n\n  function createInstrument(address token, uint amount, string memory name) external {\n    require(token != address(0), 'address cannot be null address');\n    require(amount > 0, 'amount needs to be > 0');\n    bytes memory testName = bytes(name);\n    require(testName.length != 0, 'Name is required');\n    instruments[instrumentId] = Instruments(\n      msg.sender, \n      token,\n      amount, \n      name\n    );\n    instrumentId++;\n    emit InstrumentsCreated(\n        msg.sender,\n        instrumentId,\n        amount,\n        block.timestamp,\n        name\n    );\n  }\n\n  function purchase(uint instId) external payable {\n    // pointer to token\n    IERC20 token = IERC20(instruments[instId].token);\n    // pointer to instruments\n    Instruments storage instruts = instruments[instId];\n    require(instruts.merchant != address(0), 'this instrument does not exist');\n\n    // transfer coin from buyer to merchant\n    token.transferFrom(msg.sender, instruts.merchant, instruts.amount);  \n    emit PaymentSent(\n      msg.sender, \n      instruts.merchant, \n      instruts.amount, \n      instId, \n      block.timestamp\n    );\n\n    purchases[msg.sender][instId] = Purchases(\n      msg.sender, \n      block.timestamp\n    );\n    emit PurchaseCreated(\n        msg.sender, \n        instruts.merchant, \n        instruts.amount, \n        instId, \n        block.timestamp);\n  }\n\n\n  function sendFunds(address payable receiver, uint256 amount) external payable\n  {\n  \n    IERC20 token = IERC20(tokenAddress);\n    require(\n      receiver != address(0), \n      'this receivers address does not exist'\n    );\n   \n\n    token.transferFrom(msg.sender, receiver, amount);  \n    emit FundsTransfer(\n      msg.sender,\n      receiver, \n      amount, \n      block.timestamp,\n      'lending/borrowing'\n    );\n    \n  }\n}",
    "sourcePath": "/home/zoe/InBillo/BlockChainLogic/contracts/Transactions.sol",
    "compiler": {
        "name": "solc",
        "version": "0.8.6+commit.11564f7e.Emscripten.clang"
    },
    "schemaVersion": "3.4.2",
    "updatedAt": "2022-01-13T19:03:31.445Z",
    "networkType": "ethereum",
    "devdoc": {
        "kind": "dev",
        "methods": {},
        "version": 1
    },
    "userdoc": {
        "kind": "user",
        "methods": {},
        "version": 1
    }
}